:100000000C94F9010C9421020C9421020C9421020D
:100010000C9421020C9421020C9421020C942102D4
:100020000C9421020C94E7090C9421020C94570AB9
:100030000C94310A0C9421020C9421020C9421029C
:100040000C9421020C94890A0C9421020C94210234
:100050000C9421026364696E6F70737578585B004D
:100060002020202020200056414C3A20004D454EB3
:1000700049543A20004A414D3A200054484E3A2013
:10008000323000534952454E0000000000524150AA
:1000900049440000000000454D4552470000000063
:1000A000004B4F4E54490000000000545249504C40
:1000B00045000000005D20005B005B4F46465D2070
:1000C000005B4F4E5D2020004D4154490000000070
:1000D0000000000000000000505554494800000096
:1000E00000000000000000004B554E494E47000044
:1000F00000000000000000004249525500000000CE
:10010000000000000000000050494E4B00000000BD
:10011000000000000000000050454C414E474900DF
:1001200000000000000000004E41504153205247A3
:10013000420000000000000049434520424C554564
:1001400000000000000000004359414E0000000084
:10015000000000000000000048494A41550000002E
:100160000000000000000000554E47550000000050
:1001700000000000000000005741524D20524F4F38
:100180004D000000000000004D4F44453A2000455E
:100190004449543A002020202020202020202020E4
:1001A00020004A414D000000000000000000000057
:1001B00000004D454E4954000000000000000000C2
:1001C000000054414E4747414C0000000000000031
:1001D000000042554C414E000000000000000000AD
:1001E0000000544148554E0000000000000000008F
:1001F0000000414C41524D204A414D00000000009A
:100200000000414C41524D204D454E4954000000E4
:100210000000414C4D204F4E2F4F4646000000003D
:1002200000004E41444120414C41524D000000002D
:1002300000005345545550204C414D50550000008E
:1002400000004B454C5541520000000000000000EA
:1002500000003E004D454E553A2020202020202011
:1002600020202020003A0020004A414457414C20E1
:1002700053484F4C4154003A0020410020003A00BE
:1002800020003A002F002F004D494E4747550000EF
:10029000000053454E494E000000000053454C41BC
:1002A0005341000000005241425500000000000090
:1002B0004B414D495300000000004A554D41540048
:1002C000000000005341425455000000000030007F
:1002D0004A414D204449474954414C004746414C0E
:1002E0004641414E00534D415254434C4F434B2ED7
:1002F0002E2E2E2E2E005355425548000000000091
:10030000445A55485552000000004153484152009C
:10031000000000004D414748524942000000495347
:10032000594100000000000057414B5455205348EC
:100330004F4C41540054414E4749205355552100DC
:10034000414C41524D20414B544946005341564582
:10035000442100414C41524D4F4E3A0044415445D6
:100360003A00414C41524D3A0054494D453A000043
:10037000003A003700340031000000390036003305
:100380000030000000000200000000000000000536
:100390000400070000000000000000000000000052
:1003A000000000010204081020408001020408102F
:1003B000204080010204081020408001020408103F
:1003C00020408000003B003800350032000202026D
:1003D00002020202020404040404040404030303EA
:1003E0000303030303010101010101010100AB0B40
:1003F000AC1811241FBECFE5D4E0DEBFCDBF23E093
:10040000A0E7B1E001C01D92AE30B207E1F711E004
:10041000A0E6B0E0EAEDFBE302C005900D92A03744
:10042000B107D9F711E0C8EFD1E004C02197FE0170
:100430000E949019C73FD107C9F70E94710C0C9414
:10044000E01D0C940000282F90913E0281E0913233
:1004500008F03FC080911A028111FCCF80913D02CB
:1004600032E030931A02209319022FEF20931802E2
:100470002DE132E0309317022093160210921502FC
:10048000909314021092130290911302880F892BFB
:100490008093130280911202813011F510921202A2
:1004A0008091130283B906B603FCFACF85EC86BFB0
:1004B00080911A028230E1F3809118028F3F91F00F
:1004C00080911802803281F080911802803371F09F
:1004D00084E010921C0210923E0210921B020895BA
:1004E00085EEE5CF80E0F5CF82E0F3CF83E0F1CF7A
:1004F0008F929F92AF92BF92CF92DF92EF92FF9234
:10050000CF934B01AA24BB24C82DC52ED62EE72E8F
:10051000FF24BC2DA42F2091F002222361F0829EA3
:1005200040011124C92D2C9D60011124BD2D249F53
:10053000F0011124AF2FE091F602E090F102F0906B
:10054000F2023091F302E31323C09C01220F331F08
:10055000820F931F8E0D9F1DE091F302E80FF92F7C
:10056000F11DC083E091F402E80FF92FF11DB08373
:100570002091F502820F911DFC01A083CF91FF9085
:10058000EF90DF90CF90BF90AF909F908F900895A5
:10059000880F991F880F991F8E0D9F1D472F552774
:1005A00066277727222349F030E0249F7001259F9A
:1005B000F00C349FF00C11244F2DE80FF92FF11D92
:1005C0004083CACFCF92DF92EF92FF920F931F9397
:1005D000CF93DF930091EA021091EB020115110510
:1005E000A1F06B017C01D0E0C0E08091EA02909123
:1005F000EB02C817D90728F4B701A601CE010E9463
:10060000780221960C171D0781F7DF91CF911F917A
:100610000F91FF90EF90DF90CF9008950895089587
:10062000843059F028F4813099F0823089F00895AF
:10063000853039F0873041F008958FB58F778FBDC1
:1006400008958FB58F7DFBCF85B58F7D85BD0895CE
:1006500083B78F7D83BF0895CF93DF93282F30E03A
:10066000F901ED57FC4F8491F901ED55FC4FD49100
:10067000F901E353FC4FC491CC23A1F081110E94F6
:100680001003EC2FF0E0EE0FFF1FE758FC4FA59191
:10069000B491EC91ED2381E090E009F480E0DF91EA
:1006A000CF91089580E090E0FACF1F93CF93DF932E
:1006B000282F30E0F901ED57FC4F8491F901ED55F9
:1006C000FC4FD491F901E353FC4FC491CC23A9F022
:1006D000162F81110E941003EC2FF0E0EE0FFF1F88
:1006E000ED53FC4FA591B4918FB7F894EC91111193
:1006F00008C0D095DE23DC938FBFDF91CF911F918F
:100700000895DE2BF8CF10920F0210920E02109275
:100710001C0210923E0210921A0281E0809319028C
:100720001092120261E081E10E94550361E080E1D4
:100730000E9455030898099880E280B985E486BF35
:100740008EE093E090930D0280930C028FE093E093
:1007500090930B0280930A020895CF93DF9390E069
:10076000FC01ED55FC4F249183539C4FFC01849177
:100770008823C9F090E0880F991FFC01E159FC4FD4
:10078000A591B491FC01ED53FC4FC591D491611139
:100790000DC09FB7F8948C91209582238C9388810B
:1007A000282328839FBFDF91CF910895623051F4B1
:1007B0009FB7F8943C91822F809583238C93E88196
:1007C0002E2BEFCF8FB7F894EC912E2B2C938FBF5D
:1007D000EACF000000008330910528F0880F991FB0
:1007E00005970197F1F708953FB7F89480910602B5
:1007F00090910702A0910802B091090222B708B6B1
:1008000000FE05C02F3F19F00196A11DB11D3FBF8D
:10081000BA2FA92F982F8827BC01CD01620F711D17
:10082000811D911D43E0660F771F881F991F4A9510
:10083000D1F708958F929F92AF92BF92CF92DF929D
:10084000EF92FF924B015C010E94F4036B017C016B
:100850000E94F4036C197D098E099F09683E73405C
:1008600081059105A8F321E0821A9108A108B10839
:1008700088EEC80E83E0D81EE11CF11C811491049F
:10088000A104B10429F7FF90EF90DF90CF90BF90C3
:10089000AF909F908F900895DC01ED91FC910190B5
:1008A000F081E02D0994EF92FF920F931F93CF9365
:1008B000DF938C017B01D0E0C0E0F701EC0FFD1F5E
:1008C0006491662361F0D801ED91FC910190F08173
:1008D000E02DC8010995892B11F02196EECFCE01AC
:1008E000DF91CF911F910F91FF90EF900895AF92FC
:1008F000BF92CF92DF92EF92FF920F931F93CF930D
:10090000DF936C017B018B01040F151FEB015E016E
:10091000AE18BF08C017D10759F06991D601ED9103
:10092000FC910190F081E02DC6010995892B79F7A2
:10093000C501DF91CF911F910F91FF90EF90DF9054
:10094000CF90BF90AF900895FC01538D448D252F1B
:1009500030E0842F90E0821B930B541710F0CF9659
:10096000089501970895FC01918D828D981761F08B
:10097000A28DAE0FBF2FB11D5D968C91928D9F5FA2
:100980009F73928F90E008958FEF9FEF0895FC0181
:10099000918D828D981731F0828DE80FF11D858D34
:1009A00090E008958FEF9FEF0895FC01918D228DC7
:1009B000892F90E0805C9F4F821B91098F7399274C
:1009C00008958FE392E00E94D50421E0892B09F479
:1009D00020E0822F089580E090E0892B29F00E948A
:1009E000E10481110C9400000895FC01A48DA80F6E
:1009F000B92FB11DA35ABF4F2C91848D90E0019661
:100A00008F739927848FA689B7892C93A089B18980
:100A10008C9182748C93938D848D981306C0028878
:100A2000F389E02D80818F7D80830895EF92FF927E
:100A30000F931F93CF93DF93EC0181E0888F9B8D01
:100A40008C8D981319C0E889F989808185FF14C0BD
:100A50009FB7F894EE89FF896083E889F9898081DE
:100A6000827480839FBF81E090E0DF91CF911F91DE
:100A70000F91FF90EF900895F62E0B8D10E00F5F11
:100A80001F4F0F731127E02E8C8D8E110CC00FB6E7
:100A900007FCFACFE889F989808185FFF5CFCE017F
:100AA0000E94F504F1CFEB8DEC0FFD2FF11DE35A01
:100AB000FF4FF0829FB7F8940B8FEA89FB89808102
:100AC0008062CFCFCF93DF93EC01888D8823B9F07C
:100AD000AA89BB89E889F9898C9185FD03C0808149
:100AE00086FD0DC00FB607FCF7CF8C9185FFF2CFC6
:100AF000808185FFEDCFCE010E94F504E9CFDF9123
:100B0000CF91089508951F93CF93DF93EA01122F99
:100B1000DC0111968D919C91DC01ED91FC9102809C
:100B2000F381E02D0995C817D90729F4812F0E9478
:100B3000230291E0811190E0892FDF91CF911F91E5
:100B40000895CF93DF93EC018B818823A1F08881F6
:100B500091E090931B0280933D0210921C02109230
:100B60003E0281E00E94230291E0811190E0892FF2
:100B7000DF91CF9108950E94830381E08B83CE01A2
:100B80000E94A105982F8111E2CFF1CF85ED86BF9C
:100B900006B604FCFDCF10921A0208952091970129
:100BA000260F3327331F21323105ECF420911A022E
:100BB000FC0190E080E0243069F082E00895A0918B
:100BC00097012191AC0149585E4FA40FB52FB11D7B
:100BD0002C930196861798F380919701680F609384
:100BE000970180E0089581E008950895E0910F0253
:100BF00080910E02E81730F4F0E0E654FE4F808159
:100C000090E008958FEF9FEF089590910F028091EB
:100C10000E022FEF3FEF981748F4E92FF0E0E6546B
:100C2000FE4F208130E09F5F90930F02C90108952D
:100C300080910E0290910F02891B990B0895CF921B
:100C4000DF92EF92FF920F931F93CF93DF937C017C
:100C5000CB018A0120911B02222389F0EB016B0159
:100C6000C40ED51ECC15DD0569F06991D701ED9153
:100C7000FC910190F081E02DC7010995F3CF642F1D
:100C80000E94CE05C801DF91CF911F910F91FF9077
:100C9000EF90DF90CF900895CF93DF931F92CDB761
:100CA000DEB7698320911B022223F9F020913E02D6
:100CB000203258F021E030E0FC013383228390E0C1
:100CC00080E00F90DF91CF91089580911C02E82F72
:100CD000F0E0E35EFD4F998190838F5F80931C026B
:100CE00080933E0281E090E0ECCF61E0CE0101967E
:100CF0000E94CE05F7CFFC01248131E030931B0226
:100D000020933D0210921C0210923E028385682BB4
:100D10008CED92E00E944C0681E00C9423020F932C
:100D20001F93CF938C01C62F0E947B066C2F6460AB
:100D3000C8010E947B0681E090E00E94E9036C2FCD
:100D40006B7FC8010E947B0682E390E0CF911F91E8
:100D50000F910C94E9030F931F93CF93DF938C01B2
:100D6000D62FC42F607F642B0E948F0680E1D89F0E
:100D7000B00111246C2BC801DF91CF911F910F910D
:100D80000C948F06CF93DF93CDB7DEB728970FB6BD
:100D9000F894DEBF0FBECDBF98E0E8E7F0E0DE01DB
:100DA000119601900D929A95E1F79091060396178E
:100DB00008F46FEF262F30E0220F331F41E050E0A0
:100DC0004C0F5D1F240F351FF9016081680F6068AB
:100DD00040E08EEF92E028960FB6F894DEBF0FBE8B
:100DE000CDBFDF91CF910C94AB0640E061E08EEF78
:100DF00092E00E94AB0680ED97E00C94E90341E09D
:100E00000E94AB0681E090E0089590E080E00895B4
:100E100061E08EE00E9455036EE170E080E090E0BA
:100E20000E941A0460E08EE00C9455030F931F9308
:100E3000CF93DF93CDB7DEB728970FB6F894DEBF18
:100E40000FBECDBFDC018E010F5F1F4F86E0F801A2
:100E500011928A95E9F715963C9115972AE0832F10
:100E6000622F0E941B19982F880F890F880F830FFC
:100E70008A8314963C911497832F0E941B19982FF4
:100E8000880F890F880F830F8B8313963C911397DC
:100E9000832F0E941B19982F880F890F880F830FAB
:100EA0008C8312963C911297832F0E941B19982FC6
:100EB000880F890F880F830F8E8311963C911197AD
:100EC000832F0E941B19982F880F890F880F830F7B
:100ED0008F833C91832F0E941B19982F880F890FB5
:100EE000880F830F88878091100290911102FC0176
:100EF000248135812830310580F0208131E0309324
:100F00001B0220933D0210921C0210923E0221E02F
:100F100048E050E0B8010E94830528960FB6F89487
:100F2000DEBF0FBECDBFDF91CF911F910F9108950E
:100F3000FB0101900020E9F73197AF01461B570BE9
:100F4000DC01ED91FC910280F381E02D09948F92F8
:100F50009F92AF92BF92EF92FF920F931F93CF9306
:100F6000DF93CDB7DEB7A1970FB6F894DEBF0FBE03
:100F7000CDBF7C01FA01CB0119A2223008F42AE08E
:100F80008E010F5D1F4F822E912CB12CA12CBF0121
:100F9000A50194010E944F19F901CA016A300CF5AC
:100FA000605DD8016E938D01232B242B252B79F7BF
:100FB00090E080E0109721F0BD01C7010E949807E2
:100FC000A1960FB6F894DEBF0FBECDBFDF91CF91D3
:100FD0001F910F91FF90EF90BF90AF909F908F90D7
:100FE0000895695CDECF462F50E070E060E02AE0B3
:100FF0000C94A707CF93DF93682F8FE392E00E94B2
:10100000F307EC0168EC70E08FE392E00E94980730
:101010008C0F9D1FDF91CF910895CF93C82F8A30F9
:1010200030F46EEC72E08EEF92E00E9453046C2F6D
:101030008EEF92E0CF910C94F307CF92DF92EF9274
:10104000FF92CF93DF938091EE019091EF01911188
:10105000E2C0811116C1809176018F5F843890F5CE
:101060008093760120917601293708F08FC02130D6
:1010700011F40E94F50660E080E00E94C2066091D3
:10108000F9018AE0689FB001112468577D4F8CED0B
:1010900091E00E94BC186CED71E08EEF92E00E942E
:1010A0009807CCEDD1E009900020E9F7CD5DD14063
:1010B000C830D10564F460E28EEF92E00E944C04E7
:1010C0002196F6CF109276010E94F506CBCF809143
:1010D000FD010E940D0866E872E08EEF92E00E942A
:1010E00053048091FC010E940D0864E872E08EEFC9
:1010F00092E00E9453048091FA010E940D0861E081
:1011000080E00E94C206809100020E940D0880913A
:10111000FE0162E872E080FF02C060E872E08EEFDC
:1011200092E00E9453048091FF010E940D0880917B
:10113000FE016EE772E080FF02C06CE772E08EEFA6
:1011400092E00E9453048091FE010E940D0880915C
:10115000F401882309F430C169E772E08EEF92E070
:101160000E9453048091F8010E940D0867E772E025
:101170008EEF92E00E9453048091F701DF91CF91AE
:10118000FF90EF90DF90CF900C940D08822F8A573C
:10119000990BEC0197FD2196D595C795C530D105E2
:1011A0000CF00AC120FD08C10E94F50660E080E055
:1011B0000E94C20669E672E08EEF92E00E9453043C
:1011C00061E080E00E94C2068AE08C9FB0018D9FA2
:1011D000700D11246A507D4F8CED91E00E94BC1877
:1011E0006CED71E08EEF92E00E94980767E672E086
:1011F0008EEF92E00E945304CC0FDD1FC859DF4FE1
:1012000088810E940D0865E672E08EEF92E00E94F0
:1012100053048981B3CF811134C060E00E94C206BB
:1012200064E572E08EEF92E00E94530461E080E09A
:101230000E94C20662E572E08EEF92E00E945304C3
:101240006091EF016150770B94E0660F771F9A95DC
:10125000E1F76E557E4F8CED91E00E94BC186CED6D
:1012600071E08EEF92E00E94980765E971E08EEFE1
:1012700092E0DF91CF91FF90EF90DF90CF900C94B0
:10128000530460E080E00E94C2066FE871E08EEFD8
:1012900092E00E9453046091EF016150770B84E06B
:1012A000660F771F8A95E1F76E557E4F8EEF92E0BD
:1012B0000E94980761E080E00E94C2068091EF01E1
:1012C0008A30C9F468E871E08EEF92E00E9453041E
:1012D0006091ED0190E16902B001112468537F4FE4
:1012E0008CED91E00E94BC186CED71E08EEF92E005
:1012F0000E9498070EC0883079F48091ED0161EC6E
:1013000070E0811102C06AEB70E08EEF92E00E9403
:10131000530460E670E0ABCF893091F568EB70E084
:101320008EEF92E00E945304C090ED010C2C000C53
:10133000DD08EE08FF082AE0B701A601F7FE0DC0A0
:101340006DE28EEF92E00E944C0444275527BA01CB
:101350004C195D096E097F092AE08EEF92E00E9428
:10136000A70765EB70E08EEF92E00E945304609156
:10137000ED018AE06802B00111246D577F4FB0CFB4
:101380006BE770E0853031F0813011F0863059F430
:1013900065E770E08EEF92E00E9453048091ED01CA
:1013A0000E940D08B6CF823021F067E670E08730EA
:1013B00089F76DE670E0EECFDF91CF91FF90EF906F
:1013C000DF90CF9008950C94D7180C94CF181F92EB
:1013D0000F920FB60F9211242F933F938F939F93E9
:1013E000AF93BF938091020290910302A0910402F7
:1013F000B09105023091010226E0230F2D3768F1EC
:1014000029E8230F0396A11DB11D209301028093AB
:10141000020290930302A0930402B093050280910C
:10142000060290910702A0910802B091090201966C
:10143000A11DB11D8093060290930702A09308029C
:10144000B0930902BF91AF919F918F913F912F91DE
:101450000F900FBE0F901F9018950296A11DB11D01
:10146000D4CF1F920F920FB60F9211242F933F9358
:101470004F935F936F937F938F939F93AF93BF939C
:10148000EF93FF938FE392E00E94F504FF91EF91B9
:10149000BF91AF919F918F917F916F915F914F918C
:1014A0003F912F910F900FBE0F901F9018951F9294
:1014B0000F920FB60F9211242F938F939F93EF9358
:1014C000FF93E0914F02F09150028081E09155022C
:1014D000F091560282FD1BC09081809158028F5F6F
:1014E0008F7320915902821741F0E0915802F0E089
:1014F000E15CFD4F958F80935802FF91EF919F9192
:101500008F912F910F900FBE0F901F901895808193
:10151000F4CF1F920F920FB60F9211242F933F9387
:101520004F935F936F937F938F939F93AF93BF93EB
:10153000EF93FF9381B1887F803609F44AC0F0F5BC
:10154000883209F4A3C018F5803109F499C0B8F4C1
:10155000882309F4FDC0883009F492C0FF91EF910F
:10156000BF91AF919F918F917F916F915F914F91BB
:101570003F912F910F900FBE0F901F9018958831BB
:1015800009F484C0803251F78093180214C080346B
:1015900009F4A0C040F48033B9F38833F9F680939E
:1015A000180285ECB6C0803509F485C0883509F489
:1015B00099C0883499F60E94C605D0CF883909F4BD
:1015C0008FC030F5883729F050F4883611F0803715
:1015D00029F683E080931A021092B90154C088382A
:1015E00009F47EC0803919F0803809F0B7CF8091B6
:1015F000B901803208F074C0E091B90181E08E0F2A
:101600008093B90183B1F0E0E756FE4F80833BC081
:10161000803B39F0E0F4803A09F47FC0883A09F061
:101620009DCF84E080931A02109298011092970146
:10163000E0910C02F0910D020995809197018111C2
:101640000FC081E0809397011092770109C0803C20
:1016500009F4A7CF883C09F4A4CF883B09F07ECFDA
:10166000E091980181E08E0F80939801F0E0E958B5
:10167000FE4F808183B990919801809197012EC08F
:101680008091130283B985EC86BF68CF90911502D3
:10169000809114029817A8F5809116029091170274
:1016A000E091150221E02E0F20931502E80FF92F8B
:1016B000F11D8081E7CF2091160230911702E09151
:1016C000150281E08E0F8093150283B1E20FF32F94
:1016D000F11D80839091150280911402981798F261
:1016E00085E8D2CF2091160230911702E0911502C1
:1016F00081E08E0F8093150283B1E20FF32FF11D6D
:10170000808380911902811156CF81E0809312026B
:1017100084EA86BF10921A0221CF85EC86BF109210
:101720001A028091B901803230F4E091B901F0E001
:10173000E756FE4F10826091B90170E0E0910A0215
:10174000F0910B0289E991E009951092B90106CF59
:101750001092180230CF109242021092410288EE8D
:1017600093E0A0E0B0E08093430290934402A09302
:101770004502B09346022CE930E0309340022093BA
:101780003F0220E430E030934C0220934B0249E2C8
:1017900050E050934E0240934D024BE250E0509384
:1017A000500240934F024AE250E05093520240935D
:1017B000510230935402209353022CE230E03093D4
:1017C000560220935502109258021092590210921C
:1017D0005A0210925B021092DF021092DE02809396
:1017E000E0029093E102A093E202B093E3028EEA5A
:1017F00090E09093DD028093DC021092010310923E
:10180000000380EC90E09093FF028093FE0287E259
:101810008093020380E18093070392E09093080392
:10182000109209031092E9021092F0021092F7024E
:101830001092F8021092F9021092FA0281E080935D
:10184000F6028093F3021092F4029093F5028093D3
:10185000E8028BE190E09093ED028093EC020E940D
:1018600096199093F2028093F102009789F12BE18F
:10187000FC0111922A95E9F789E090E09093EB0240
:101880008093EA0284E090E09093EF028093EE026E
:101890008091E902882341F061E084E00E94AD0379
:1018A00060E084E00E945503E1EDF3E0E491F0E0B4
:1018B000EE0FFF1FED53FC4F859194919093FC0226
:1018C0008093FB02E7EAF3E0E491E093FD020895E0
:1018D0001092ED021092EC021092EB021092EA02CA
:1018E000D1CFCF93DF93CDB7DEB7CF54D1090FB6A9
:1018F000F894DEBF0FBECDBF789483B7836083BFFB
:1019000083B7886483BF89B7816089BF92E09EBD39
:101910008EB581608EBD8FB581608FBD85B58460C9
:1019200085BD85B5806485BD86E886B91AB8E09125
:101930004F02F09150029083E0914B02F0914C02E3
:101940001082E0914D02F0914E0297E69083109242
:101950005702E0915302F09154028083E0915102CA
:10196000F0915202808188698083E0915102F09168
:10197000520280818F7D80838AE090E0A0E0B0E019
:101980008093430290934402A0934502B093460291
:1019900062E080E00E94AD0362E081E00E94AD035E
:1019A00062E082E00E94AD0361E08EE00E94AD0340
:1019B0000E9483038091100290911102009711F010
:1019C0000E94321A86E090E00E9496198C0188E607
:1019D000D8018C938CED92E012969C938E93119784
:1019E00013961C92139780E290E015969C938E9329
:1019F000149710931102009310020E94830381E058
:101A0000F8018383C8010E94A1050E9483031092FC
:101A1000030380910803823018F098E09093030349
:101A20008093060362E370E080E090E00E941A0475
:101A3000609109038EEF92E00E947B0668EE73E0EE
:101A400080E090E00E941A0460E38EEF92E00E9432
:101A50008F0684E991E10E94E90360E38EEF92E052
:101A60000E948F0684E991E10E94E90360E38EEF12
:101A700092E00E948F0686E990E00E94E90360E20E
:101A80008EEF92E00E948F0660910303606240E057
:101A90008EEF92E00E94AB0684E08093040340E066
:101AA0006CE08EEF92E00E94AB060E94F50682E0A9
:101AB0008093050340E066E08EEF92E00E94AB0663
:101AC00040E062E08EEF92E00E94AB0680ED97E08E
:101AD0000E94E90388E08093090360E08EEF92E0C2
:101AE0000E947B068091EE029091EF0297FD33C039
:101AF00061E00E94AD0360E08091EE020E94550318
:101B000081E08093E9022091F002222361F10091AB
:101B1000F1021091F202215009F130E050E040E072
:101B20006FEF7FEF80E090E00E947119F801409123
:101B3000EC025091ED02CF01801B910B84179507A9
:101B400080F4DF014D91429FC001439F900D11240D
:101B50009083FD01ECCF1092E902D5CF30E020E078
:101B6000E5CF1092F0028AE090E00E94E509182F7C
:101B70008093F6018BE090E00E94E509E82E8093C7
:101B8000F8018CE090E00E94E509F82E8093F701BF
:101B90008DE090E00E94E509082F8093F4018EE02B
:101BA00090E00E94E5098093F501F7E1FE1518F435
:101BB00096E09093F8012BE32F1510F41092F701A3
:101BC000023018F091E09093F4018150853018F0C4
:101BD00081E08093F5011C3010F01092F6010E9414
:101BE000F50660E080E00E94C20665EE72E08EEFCE
:101BF00092E00E94530461E080E00E94C20600E18E
:101C000010E06FEF8EEF92E00E94FF0668EC70E04C
:101C100080E090E00E941A040150110991F70E949F
:101C2000F50660E080E00E94C2066CED72E08EEF87
:101C300092E00E94530461E084E00E94C20660EDDD
:101C400072E08EEF92E00E94530461E08EE00E9409
:101C500055036CE271E080E090E00E941A0460E0BD
:101C60008EE00E9455036CED75E080E090E00E94EC
:101C70001A040E94F5063E0131E4630E711C07E070
:101C8000A02EB12C1982C0901002D0901102D60162
:101C900014968D919C911597892B09F496C08C917F
:101CA00091E090931B0280933D0210921C021092CF
:101CB0003E0220E041E050E0BE016F5F7F4FC60171
:101CC0000E948305882309F480C0F12CE12C1AEBD3
:101CD000212E11E0312E80911A028111FCCFF601E4
:101CE0008481958185010E191F098017910708F4D9
:101CF0008C01D6019C91802FB1E0B0931A0241E093
:101D00009501201B310BE216F30608F440E04093E6
:101D10001902EFEFE0931802309217022092160298
:101D2000109215022FEF280F20931402F1E0F09388
:101D3000130220911302990F922B9093130290910A
:101D400012029130C1F5109212029091130293B9D0
:101D500006B603FCFACF25EC26BF90911A0291300B
:101D6000E1F390911502981710F4809115021092EA
:101D70000F0280930E028017110639F58824839490
:101D8000912C8C0E9D1E8E0C9F1C2401C401841965
:101D900095098017910790F4D60111968D919C9129
:101DA000DC01ED91FC910284F385E02D0995F401AD
:101DB00081934F01EBCF35EE36BFCFCFE00EF11E52
:101DC000F7E0EF16F10408F486CF29812F77822FF0
:101DD00090E034E0959587953A95E1F7982F990F23
:101DE000990F382F391B932F990F920F8A81282F23
:101DF00030E044E0359527954A95E1F7322F330FCF
:101E0000330F422F431B342F330F380F8B81482F52
:101E100050E064E0559547956A95E1F7242F220F2D
:101E2000220F742F721B770F780F8D81482F50E08F
:101E3000E4E055954795EA95E1F7242F220F220F0C
:101E4000142F121B110F180F8E81482F50E0F4E051
:101E500055954795FA95E1F7242F220F220FE42F8D
:101E6000E21BEE0FE80F8F81482F50E0A4E055955C
:101E70004795AA95E1F7242F220F220F642F621BAA
:101E8000262F220F280F2FA7E8AB19AB7AAB3BAB5D
:101E90009CAB709300023093FF019093FE0110936E
:101EA000FD01E093FC0130E03093FB012093FA0147
:101EB000E33008F4E8C12053384F7901F594E794F2
:101EC000F594E794E20EF31EC9016CE97FEF0E94DE
:101ED0003B19E60EF71EC90160E971E00E943B194B
:101EE000E60EF71EE150FF0BEE0FFF1FE058FF4F0D
:101EF000808191818E0D9F1D810F911DB5010E94E2
:101F00003B198093F9018FE392E00E94D504892B5D
:101F100009F490C0CE0101966C01F12CE12C8C01EA
:101F20002FB7F8948091020290910302A0910402CD
:101F3000B09105022FBF8093470290934802A0936F
:101F40004902B0934A028FE392E00E94B30497FDE6
:101F500002C00C9453182FB7F8948091020290910C
:101F60000302A0910402B09105022FBF40914702E5
:101F7000509148026091490270914A02841B950B6E
:101F8000A60BB70B40914302509144026091450269
:101F90007091460284179507A607B707A0F2F801CB
:101FA000EE0DFF1D10826BEC70E0C8010E94BB1AA1
:101FB000800F911FDC011C9248E050E06DEC70E056
:101FC000C8010E94CA1A892B09F060C1CE01C796C8
:101FD0009F938F9302969F938F9302969F938F93D5
:101FE00086ED90E09F938F931F930F930E94D81AD2
:101FF0004FA959AD6BAD7091FD01E091FC012091AD
:10200000FA013091FB01C9018053984F0FB6F89443
:10201000DEBF0FBECDBF803DB7E09B0708F0C90112
:1020200089A7EAA77BA76CA75DA74EA7CE018996D3
:102030000E9416072FB7F894809102029091030234
:10204000A0910402B09105022FBF4091F001509180
:10205000F1016091F2017091F301841B950BA60BC5
:10206000B70B893E9340A105B10508F4DCC02FB73A
:10207000F8948091020290910302A0910402B09121
:1020800005022FBF8093F0019093F101A093F2011C
:10209000B093F30169E673E08FE392E00E9453048A
:1020A000809100028A3028F460E38FE392E00E947E
:1020B0004C04609100028FE392E00E94F3076AE310
:1020C0008FE392E00E944C048091FF018A3028F453
:1020D00060E38FE392E00E944C046091FF018FE384
:1020E00092E00E94F3076AE38FE392E00E944C04BF
:1020F0008091FE018A3028F460E38FE392E00E9431
:102100004C048091FE010E94FA0762E673E08FE3BF
:1021100092E00E9453048091F8018A3028F460E331
:102120008FE392E00E944C046091F8018FE392E00B
:102130000E94F3076AE38FE392E00E944C048091CF
:10214000F7018A3028F460E38FE392E00E944C04A8
:102150008091F7010E94FA076CE573E08FE392E04B
:102160000E9453048091FD018A3028F460E38FE3DC
:1021700092E00E944C046091FD018FE392E00E9486
:10218000F3076FE28FE392E00E944C048091FC0120
:102190008A3028F460E38FE392E00E944C0460915F
:1021A000FC018FE392E00E94F3076FE28FE392E07D
:1021B0000E944C048091FA019091FB010A972CF443
:1021C00060E38FE392E00E944C04C090FA01D0904B
:1021D000FB010D2C000CEE08FF082AE0B701A60158
:1021E000F7FE0DC06DE28FE392E00E944C0444279D
:1021F0005527BA014C195D096E097F092AE08FE362
:1022000092E00E94A70768EC70E08FE392E00E94E2
:10221000980763E573E08FE392E00E945304809196
:10222000F4010E94FA078091EF0181110EC08091A4
:10223000EE0181110AC08091FE019091670089171B
:1022400021F0809367000E941D088091F40190E0C6
:1022500020916500309166008217930741F09093BA
:102260006600809365000E94F5060E941D0880911B
:10227000F601813009F019C164E676E986E990E05B
:102280000E94E20287C12153384F17CE49E050E047
:1022900067EE70E0C8010E94CA1A892B69F5CE0169
:1022A00089969F938F930E969F938F9381EF90E0E3
:1022B0009F938F931F930F930E94D81A0FB6F89491
:1022C000DEBF0FBECDBF029731F48FA98093F80116
:1022D00089A58093F7016091F8018BE090E00E945E
:1022E000E3096091F7018CE090E00E94E3090E940D
:1022F000F5060E941D089ECE48E050E060E071E0C7
:10230000C8010E94CA1A892BF9F4CE0189969F93BD
:102310008F9389E091E09F938F931F930F930E9477
:10232000D81A69A57AA50F900F900F900F900F9073
:102330000F906C30710508F07DCE6093F6018AE055
:1023400090E00E94E30976CE48E050E064E171E05D
:10235000C8010E94CA1A892BF1F4CE0189969F9375
:102360008F938DE191E09F938F931F930F930E9422
:10237000D81A69A57AA5CB0101970F900F900F90FD
:102380000F900F900F90059708F054CE6093F501D1
:102390008EE090E0D6CF4BE050E068E271E0C801FB
:1023A0000E94CA1A892BE9F4CE0189969F938F93D4
:1023B00084E391E09F938F931F930F930E94D81A09
:1023C00069A57AA50F900F900F900F900F900F9026
:1023D0006230710508F02ECE6093F4018DE090E03C
:1023E00084CF47E050E062E471E0C8010E94CA1A5D
:1023F000892B09F01FCECE0189969F938F930E965D
:102400009F938F9302969F938F9302969F938F93A0
:1024100002969F938F9302969F938F937F926F92D2
:102420007E01F3E4EF0EF11CFF92EF926E0125E4C2
:10243000C20ED11CDF92CF924E0137E4830E911C65
:102440009F928F928AE491E09F938F931F930F93B3
:102450000E94D81A0FB6F894DEBF0FBECDBF0A9700
:1024600009F0E8CDF401808180936800D6018C9159
:1024700080936900F701808180936A00D3018C9179
:1024800080936B008FAD80936C008DAD80936D0059
:102490008BAD80936E0089AD80936F008FA9809380
:1024A000700089A580937100C5CD823029F460E069
:1024B00078E78FEF90E0E4CE833029F46FEF70E09F
:1024C00080E090E0DDCE843029F466E970E08FEFA3
:1024D00090E0D6CE853009F094C1F12CE12C10E0CB
:1024E00000E06091EA027091EB024091DA015091B4
:1024F000DB010617170708F047C0C7010E9427191C
:10250000962F940F90959535C8F4892F880F880FD2
:10251000492F481B8FEF840F482F50E070E060E098
:10252000BA0155274427892F880F980F492BC801D6
:102530000E9478020F5F1F4FF394D3CF9A3A88F42A
:102540009555492F440F490F50E070E060E0762F19
:10255000652F542F4427892F880F880F981B91507F
:10256000E5CF9A5A892F880F880FF92FF81B8F2FE4
:102570008150492F440F490F50E070E060E0BA01EC
:1025800055274427582BD3CF4F5F5F4F5093DB0124
:102590004093DA018091F1029091F202892B09F4C3
:1025A000CEC00E94F4030091F7021091F80220912E
:1025B000F9023091FA02601771078207930740F41D
:1025C0006093F7027093F8028093F9029093FA02F5
:1025D0000091F7021091F8022091F9023091FA026D
:1025E000601B710B820B930B6C327140810591055E
:1025F000C0F2F8948091EC029091ED029EAB8DAB0D
:10260000E091F102F091F202DF0111968081609673
:102610008FAF60978091E802E091FB02F091FC029D
:10262000882309F42CC22A961FAE2A97E233F105BB
:1026300009F03EC192B38091FD02982B2F969FAF77
:102640002F9792B3809589232E968FAF2E972E9633
:102650008FAD2E972B968FAF2B9760968FAD60978F
:1026600087FF06C02F968FAD2F972B968FAF2B9796
:102670002F965FAD2F972E966FAD2E9760964FAD2C
:1026800060972B963FAD2B972A962FAD2A978DA951
:102690009EA952BB262F32BB00C046FD252F62BB30
:1026A00000C052BB362F22BB00C045FD352F62BB98
:1026B00000C052BB262F32BB00C044FD252F62BB99
:1026C00000C052BB362F22BB00C043FD352F62BB7A
:1026D00000C052BB262F32BB00C042FD252F62BB7B
:1026E00000C052BB362F22BB00C041FD352F62BB5C
:1026F00000C052BB262F32BB00C040FD252F62BB5D
:10270000019752BB362F22BB4D9147FD352F62BB3F
:1027100001F660964FAF60972B963FAF2B972A96A6
:102720002FAF2A979EAB8DAB78940E94F4036093F1
:10273000F7027093F8028093F9029093FA02809165
:10274000EF018111F7C18091EE018111F3C19091E8
:1027500000028091FF012091FE01309164004091C0
:10276000F401442309F4BEC24091F8014913BAC2EE
:102770004091F7014813B6C22111B4C2431709F4BE
:10278000B1C20E94F50660E082E00E94C20660E4E9
:1027900073E08EEF92E00E94530461E083E00E94B8
:1027A000C20665E373E08EEF92E00E94530480E07E
:1027B0000E942C03019709F0ABC181E00E942C0319
:1027C000019709F0A5C182E00E942C03019709F04E
:1027D0009FC18091F501813009F02FC261E08EE048
:1027E0000E94550368E770E080E090E00E941A04C0
:1027F00060E08EE00E94550368E770E080E090E0C2
:1028000030C2863071F50091620010916300602F34
:1028100070E090E080E0982F872F762F6627980150
:1028200017FF02C02F5F3F4F35952795622B0E94FF
:10283000E2022091600030916100C801820F931F75
:1028400090936300809362000B978D3B910508F491
:10285000A1CE31952195310930936100209360001C
:1028600099CE873029F46FEF78EC80E090E008CDC6
:10287000883029F46FEF7FEF88E790E001CD893051
:1028800029F460E57FEF80E090E0FACC8A3029F40B
:102890006FEF70E584EB90E0F3CC8B3029F460EAC5
:1028A0007CED8FEF90E0ECCC60E070E0CB01E8CC09
:1028B000E833F10509F070C098B38091FD02982BC0
:1028C0002F969FAF2F9798B3809589232E968FAF21
:1028D0002E972E968FAD2E972B968FAF2B976096B7
:1028E0008FAD609787FF06C02F968FAD2F972B96E1
:1028F0008FAF2B972F965FAD2F972E966FAD2E979C
:1029000060964FAD60972B963FAD2B972A962FADD3
:102910002A978DA99EA958BB262F38BB00C046FD1B
:10292000252F68BB00C058BB362F28BB00C045FD13
:10293000352F68BB00C058BB262F38BB00C044FDF4
:10294000252F68BB00C058BB362F28BB00C043FDF5
:10295000352F68BB00C058BB262F38BB00C042FDD6
:10296000252F68BB00C058BB362F28BB00C041FDD7
:10297000352F68BB00C058BB262F38BB00C040FDB8
:10298000252F68BB019758BB362F28BB4D9147FDBB
:10299000352F68BB01F6BDCEF59709F0C5CE95B3CE
:1029A0008091FD02982B2F969FAF2F9795B380951E
:1029B00089232E968FAF2E972E968FAD2E972B961E
:1029C0008FAF2B9760968FAD609787FF06C02F96CD
:1029D0008FAD2F972B968FAF2B972F965FAD2F979D
:1029E0002E966FAD2E9760964FAD60972B963FADAC
:1029F0002B972A962FAD2A978DA99EA955BB262FD6
:102A000035BB00C046FD252F65BB00C055BB362F2A
:102A100025BB00C045FD352F65BB00C055BB262F2B
:102A200035BB00C044FD252F65BB00C055BB362F0C
:102A300025BB00C043FD352F65BB00C055BB262F0D
:102A400035BB00C042FD252F65BB00C055BB362FEE
:102A500025BB00C041FD352F65BB00C055BB262FEF
:102A600035BB00C040FD252F65BB019755BB362FF8
:102A700025BB4D9147FD352F65BB01F64ACE9081B0
:102A80008091FD02982B2F969FAF2F979081809574
:102A900089232E968FAF2E972E968FAD2E972D963B
:102AA0008FAF2D9788E02C968FAF2C972F965FAD28
:102AB0002F972E966FAD2E9760964FAD60972C9600
:102AC0003FAD2C972D962FAD2D978DA99EA95083A4
:102AD00047FD252F2083262F3A9531F0441F608330
:102AE00000C000C000C0F3CF6083000038E04D910B
:102AF000019769F7F093FC02E093FB0260964FAFF9
:102B000060972C963FAF2C972D962FAF2D970ACE1E
:102B100060E08EE00E9455038091FF018093640085
:102B20006CED75E080E090E00E941A040E94F506CA
:102B30000E941D0880E00E942C03892B09F56EE19C
:102B400070E080E090E00E941A0480E00E942C0374
:102B5000892BB1F40E9408078091EF019091EE015A
:102B60008111EAC2911150C181E08093EF010E946E
:102B7000F5060E941D0880E00E942C03892BD9F3E2
:102B800081E00E942C03892B11F56EE170E080E05A
:102B900090E00E941A0481E00E942C03892BB9F472
:102BA0000E9408078091EF019091EE0191110DC2F2
:102BB0008F5F8C3008F006C28093EF010E94F5060B
:102BC0000E941D0881E00E942C03892BD9F382E02A
:102BD0000E942C03892B09F56EE170E080E090E003
:102BE0000E941A0482E00E942C03892BB1F40E94F7
:102BF00008078091EF019091EE0191111EC28111A1
:102C00001AC28BE08093EF010E94F5060E941D0816
:102C100082E00E942C03892BD9F380E090E0892B7D
:102C200011F40C94420E0E94E104882311F40C94D8
:102C30003F0E0E9400000C943B0E8230A9F461E02C
:102C40008EE00E9455036CE370E080E090E00E940B
:102C50001A0460E08EE00E9455036CE370E080E0AF
:102C600090E00E941A04A3CD833049F461E08EE025
:102C70000E9455036CE271E080E090E0B7CD03E084
:102C800010E0843099F461E08EE00E94550364EF17
:102C900071E080E090E00E941A0460E08EE00E9403
:102CA000550360E570E080E090E0DBCF61E08EE00E
:102CB0000E94550364E670E080E090E00E941A04F0
:102CC00060E08EE00E94550360E570E080E090E0F7
:102CD0000E941A040150110949F768EC70E080E085
:102CE00090E0BFCFE8E6F0E010E000E0408149135B
:102CF00058C04181481355C0211153C0831709F4AE
:102D000050C00E94F50660E081E00E94C20668E2C1
:102D100073E08EEF92E00E94530461E083E00E9432
:102D2000C2068AE0809FB001819F700D11246A5015
:102D30007D4F8CED91E00E94BC186CED71E08EEF40
:102D400092E00E9498072090F501022D10E00D5F9F
:102D50001F4F000F111F44E1249E1001112460E554
:102D6000260E311C032C000C44085508F12CE12CD4
:102D700061E08EE00E945503C201B1010E941A0475
:102D800060E08EE00E9455036CE370E080E090E02C
:102D90000E941A048FEFE81AF80A0E151F0541F772
:102DA000BBCE0F5F1F4F32960530110509F09ECF45
:102DB000C1CE823019F48091FF01CBC1833019F468
:102DC0008091FD01C6C1843019F48091FC01C1C11C
:102DD000853019F48091FA01BCC1863019F48091D4
:102DE000F801B7C1873019F48091F701B2C188307A
:102DF00019F48091F401ADC1893019F48091F50185
:102E0000A8C18091F601A5C1913009F0D5C08130EB
:102E1000A9F44091FF015091ED016091FD01709185
:102E2000FC012091FA013091FB01C9018053984FB8
:102E3000803DA7E09A07C0F0C90116C0823009F0B2
:102E400050C04091ED01509100026091FD017091E0
:102E5000FC012091FA013091FB01C9018053984F88
:102E6000803DB7E09B0740F789837A836B835C835F
:102E70004D831E82CE0101960E9416076091F601D5
:102E80008AE090E00E94E3096091F8018BE090E015
:102E90000E94E3096091F7018CE090E00E94E30951
:102EA0006091F4018DE090E00E94E3096091F501EA
:102EB0008EE090E00E94E3090E94F50660E084E065
:102EC0000E94C2066CE473E08EEF92E00E9453040D
:102ED00060E273E080E090E00E941A041092EE013C
:102EE00046CE8330A9F44091FF01509100026091D9
:102EF000ED017091FC012091FA013091FB01C901B3
:102F00008053984F803DE7E09E0708F095CFACCF07
:102F10008430A9F44091FF01509100026091FD01BD
:102F20007091ED012091FA013091FB01C9018053AC
:102F3000984F803DF7E09F0708F07ECF95CF853012
:102F4000B9F44091FF01509100026091FD01709130
:102F5000FC018091ED01082E000C990B9C0120537F
:102F6000384F203DA7E03A070CF09C0129837DCF24
:102F7000863029F48091ED018093F8017FCF87306E
:102F800029F48091ED018093F70178CF883029F4FE
:102F90008091ED018093F40171CF893029F4809103
:102FA000ED018093F5016ACF8A3009F067CF8091F7
:102FB000ED018093F60162CF8B3009F0DACD1092EB
:102FC000EF018CCF1092EF01F9CD9091ED019F5F51
:102FD0009093ED01813021F498310CF4F1CD05C0CE
:102FE000823031F49C330CF4EBCD1092ED01E8CD3E
:102FF000833009F06BC090320CF4E2CD81E0809315
:10300000ED01DECD9D300CF4DBCDF8CF94360CF421
:10301000D7CDEBCF8091ED018C330CF4D1CDE5CF42
:103020008091ED0182300CF7CBCD8091ED0186309F
:103030000CF4C6CDE3CF8150E5CD9091ED019150D8
:103040009093ED01813021F487E197FD0EC0DECD34
:10305000823021F497FFDACD8BE307C0833009F08B
:1030600050C08FE119160CF4D1CD8093ED01CECD77
:103070008CE019160CF4CACDF8CF83E697FDF5CF96
:10308000C5CD8091ED0187FFC1CDE6CF8091ED01E7
:1030900087FFBCCD81E0E9CF8091ED0118160CF4DB
:1030A000B5CD85E0E2CF8A30910511F40C94CF0FB5
:1030B000D6018D936D01BFEFEB1AFB0AE7E2EE1626
:1030C000F10411F00C94900F0C94CF0F843009F49C
:1030D00099CF853009F49ACF863009F47DCF8730B7
:1030E00009F498CF883009F49BCF893009F49DCF3B
:1030F0008A3009F065CD8091ED018C300CF460CD03
:1031000074CF843009F4B4CF853009F4B6CF86305B
:1031100009F49ACF873009F4B4CF883009F4B6CFD8
:10312000893009F4B9CF8A3009F070CD8091ED0172
:1031300087FF6CCD8BE099CF911166CE8B3008F074
:103140003BCF91E09093EE01813009F032CE809137
:1031500000028093ED010BCD8091F1029091F2027B
:103160000E94321A8091EE029091EF0297FD03C007
:1031700060E00C94AD030895FB01DC0105900D9215
:103180000020E1F7089591110C94CC18803219F0C9
:1031900089508550C8F70895992788270895E1999F
:1031A000FECF9FBB8EBBE09A99278DB30895262F43
:1031B000E199FECF9FBB8EBB2DBB0FB6F894E29A70
:1031C000E19A0FBE019608952F923F924F925F921F
:1031D0006F927F928F929F92AF92BF92CF92DF9227
:1031E000EF92FF920F931F93CF93DF93CDB7DEB78C
:1031F000CA1BDB0B0FB6F894DEBF0FBECDBF099420
:103200002A88398848885F846E847D848C849B8476
:10321000AA84B984C884DF80EE80FD800C811B8184
:10322000AA81B981CE0FD11D0FB6F894DEBF0FBEB3
:10323000CDBFED010895991B79E004C0991F961741
:1032400008F0961B881F7A95C9F780950895AA1BE8
:10325000BB1B51E107C0AA1FBB1FA617B70710F081
:10326000A61BB70B881F991F5A95A9F780959095B3
:10327000BC01CD01089597FB072E16F4009407D0EA
:1032800077FD09D00E94271907FC05D03EF49095E0
:1032900081959F4F0895709561957F4F0895A1E2A4
:1032A0001A2EAA1BBB1BFD010DC0AA1FBB1FEE1FC0
:1032B000FF1FA217B307E407F50720F0A21BB30B0B
:1032C000E40BF50B661F771F881F991F1A9469F787
:1032D00060957095809590959B01AC01BD01CF01E3
:1032E0000895052E97FB1EF400940E94881957FD3F
:1032F00007D00E944F1907FC03D04EF40C94881994
:1033000050954095309521953F4F4F4F5F4F089511
:1033100090958095709561957F4F8F4F9F4F089541
:10332000EE0FFF1F0590F491E02D09940F931F936A
:10333000CF93DF938230910510F482E090E0E0912A
:103340000C03F0910D0330E020E0B0E0A0E03097F6
:1033500099F42115310509F44AC0281B390B243092
:103360003105D8F58A819B816115710589F1FB01D1
:1033700093838283FE0111C04081518102811381B8
:1033800048175907E0F04817590799F4109761F06A
:1033900012960C93129713961C933296CF01DF91DD
:1033A000CF911F910F91089500930C0310930D037B
:1033B000F4CF2115310551F04217530738F0A90118
:1033C000DB019A01BD01DF01F801C1CFEF01F9CFA7
:1033D00090930D0380930C03CDCFFE01E20FF31FFA
:1033E000819391932250310939832883D7CF20913B
:1033F0000A0330910B03232B41F420917400309188
:10340000750030930B0320930A03209172003091D2
:1034100073002115310541F42DB73EB74091760078
:1034200050917700241B350BE0910A03F0910B03B8
:10343000E217F307A0F42E1B3F0B2817390778F08B
:10344000AC014E5F5F4F2417350748F04E0F5F1FEA
:1034500050930B0340930A03819391939FCFF0E025
:10346000E0E09CCFCF93DF930097E9F0FC01329727
:1034700013821282A0910C03B0910D03ED0130E094
:1034800020E01097A1F420813181820F931F2091B9
:103490000A0330910B032817390709F061C0F09334
:1034A0000B03E0930A03DF91CF910895EA01CE1751
:1034B000DF07E8F54A815B819E0141155105B1F7AF
:1034C000E901FB83EA8349915991C40FD51FEC1799
:1034D000FD0761F4808191810296840F951FE901B7
:1034E00099838883828193819B838A83F0E0E0E0E3
:1034F00012968D919C9113970097B9F52D913C915F
:103500001197CD010296820F931F20910A033091EB
:103510000B032817390739F6309751F510920D0330
:1035200010920C03B0930B03A0930A03BCCFD38378
:10353000C28340815181840F951FC817D90761F458
:103540004E5F5F4F88819981480F591F5183408397
:103550008A819B81938382832115310509F0B0CF45
:10356000F0930D03E0930C039ECFFD01DC01C0CF6F
:1035700013821282D7CFDC015D91552331F0FB011C
:10358000019005160110E1F7B9F7809590958A0F23
:103590009B1F0895FB01DC014150504030F08D919C
:1035A0000190801919F40020B9F7881B990B089530
:1035B000AEE0B0E0EEEDFAE10C94F41885E08C8317
:1035C0008B899C899A838983AE01495E5F4F6D899F
:1035D0007E89CE0101960E947C1C2E96E2E00C941E
:1035E000101920FD09C0FC0123FD05C022FF02C007
:1035F0007383628351834083089544FD17C046FD61
:103600001DC0DB01FC01AA0FBB1FEE1FFF1F1094A2
:10361000D1F76A0F7B1F8E1F9F1F660F771F881FB2
:10362000991F620F711D811D911D089533E0660F72
:10363000771F881F991F3150D1F7F3CF34E0F7CFB0
:103640000F931F93CF93DF938C01C8010E948C1DB1
:10365000EC0197FD08C00E94C318892BB1F7B8018F
:10366000CE010E94C81DCE01DF91CF911F910F9115
:1036700008958F929F92AF92BF92EF92FF920F9315
:103680001F93CF93DF938C01D62F7A01B22E0E9425
:103690008C1D9C0133272B32310529F02D32310549
:1036A000A9F46894B7F8D15061F480E0DF91CF912C
:1036B0001F910F91FF90EF90BF90AF909F908F90D0
:1036C0000895C8010E948C1D97FDEFCFCB2DCD7FB3
:1036D0002B2D2073F9F48033E9F4AA24AA94AD0EBB
:1036E00089F0C8010E948C1D97FD0CC0282F2F7DEA
:1036F000283561F4C264D25029F0C8010E948C1DA3
:1037000097FF08C0812C912C54011BC0B6FE2BC022
:10371000C260DA2D812C912C540120ED280F283025
:1037200028F1C4FD09C02A3008F1C6FF05C02F7D6D
:103730003FEE320F3630C8F0B8010E94C81DC1FFFD
:10374000B4CFC7FF08C0B094A09490948094811C1B
:10375000911CA11CB11C2C2FB501A401C7010E9412
:10376000F11A81E0A3CFC261D4CF27504C2FC501FD
:10377000B4010E94FD1A4B015C01C260D15009F3F3
:10378000C8010E948C1D97FFC8CFD9CFA0E2B0E03E
:10379000ECECFBE10C94E9185C01962E7A01CE0169
:1037A00001966C0180E2F60111928A95E9F7F50124
:1037B000B381890130E020E0712C812CA0E041E050
:1037C00050E0F801B3FD8591B3FF8191982F8F01EF
:1037D000811107C010E000E0C801A096EDE00C9454
:1037E00005198E3519F42115310541F1A21713067B
:1037F0004CF48D3549F18D3229F4811006C08824AE
:1038000083941DC0882009F464C0E92FE695E695ED
:10381000E695EC0DFD2DF11D892F8770BA0101C0D1
:10382000660F8A95EAF78081682B6083791651F0DC
:10383000971510F49F5FE9CF9150E7CFA1E02F5F7C
:103840003F4FBFCF812CFBCF882019F08E81806243
:103850008E83AA2359F0F6019E012F5D3F4F808190
:10386000809580833196E217F307C9F78824839403
:10387000C5010E948C1D97FD16C0E82FE695E695C0
:10388000E695EC0DFD2DF11D208130E0AC01477077
:10389000552702C0359527954A95E2F720FD06C0C9
:1038A000B5010E94C81D882069F094CFE114F1048D
:1038B00029F0F7018083C70101967C019A94812C3D
:1038C0009110D6CFE114F10409F486CFF7011082EC
:1038D00083CFE82FE695E695E695EC0DFD2DF11DDD
:1038E000982F9770BA0101C0660F9A95EAF79081F8
:1038F000692B6083782EA3CFB0E0A0E0E2E8FCE182
:103900000C94E7186C01EB015A01FC011782168236
:10391000512CF601E380FE01E3FC8591E3FE8191E9
:10392000182FEF018823E9F090E00E94C318892B3B
:1039300021F0C6010E94201BECCF153241F4FE019C
:10394000E3FC1591E3FE1191EF01153269F4C60114
:103950000E948C1D97FD8EC01817D9F2B6010E94E7
:10396000C81D852D90E08AC000E01A3231F4E3FCD6
:103970001591E3FE1191EF0101E0F12C20ED210FF3
:103980002A3048F101FF37C0FF2059F31836B1F152
:103990001C3609F43DC0112321F3612F70E084E54A
:1039A00090E00E94811D892BE1F2912C812C00FD79
:1039B00006C0F50180809180C50102965C011E362B
:1039C00079F5F6014681578170E060E0202FC4014F
:1039D0000E94F11A9ECF02606F2D70E090E080E0AF
:1039E00040E20E94FD1AF62EFE01E3FC1591E3FE73
:1039F0001191EF01C3CFFF24FA94C8CFFE01E3FC7D
:103A00001591E3FE1191EF01183609F0C4CF08605B
:103A10000460FE01E3FC1591E3FE1191EF01BBCFC1
:103A20001336C1F401FD02C0FF24F394C6010E94C5
:103A30008C1D97FD1FC08114910429F0F40180832F
:103A4000C40101964C01FA94F110F0CF00FD61CF52
:103A500053945FCF1B35B9F49E01A4016F2DC601AD
:103A60000E94C61BEC01892B89F7F60183818073C4
:103A700009F477CF8FEF9FEF511073CFCDB7DEB73B
:103A8000EFE00C940319C6010E94201B97FDF2CFB2
:103A90001F36A9F130F4143641F0193639F00064BC
:103AA00005C01337B9F01537D1F70062202FA401F4
:103AB0006F2DC6010E94391B8111C8CFD6CF81144A
:103AC000910429F0F4016082C40101964C01FA943A
:103AD000FF2071F0C6010E948C1D3C0197FD08C0BB
:103AE0000E94C318892B59F3B601C3010E94C81D57
:103AF0008114910409F4AACFF4011082A7CF0061C8
:103B0000D5CFFC010590061621F00020D9F7C001A1
:103B100008953197CF010895CF93DF93EC012B8166
:103B200020FF1AC026FF0CC02F7B2B838E819F8124
:103B300001969F838E838A8190E0DF91CF910895D3
:103B400022FF18C0E881F9818081082E000C990BB2
:103B5000009729F420622B838FEF9FEFEECF3196F1
:103B6000F983E8832E813F812F5F3F4F3F832E8370
:103B70009927E3CFEA85FB85099597FFF3CF2B8142
:103B8000019621F080E2822B8B83E6CF80E1FBCF90
:103B9000FB01238120FF11C026FD0FC08F3F980736
:103BA00071F082832F7D2064238326813781215009
:103BB000310937832683992708958FEF9FEF089562
:103BC00011E0C8EFD1E004C0FE010E9490192196D7
:0A3BD000C93FD107C9F7F894FFCFF1
:103BDA0001003200FFFFFFFF041E0B2D0F00112D05
:103BEA00130000000E03800000004000140054007F
:103BFA0000000300020005000000030005000100A8
:103C0A000400060002000400000000001605770404
:103C1A00A4046205D504B304C704000000004C06DE
:103C2A001F060507F50518060506F605000000003B
:103C3A00FF067704050782050D0A000D0053455457
:103C4A0054494D453A0053455454494D453A256423
:103C5A003A25643A256400534554414C41524D3A41
:103C6A0000534554414C41524D3A25643A2564006B
:103C7A005345544D4F44453A005345544D4F4445DE
:103C8A003A256400534554544F4E453A005345541F
:103C9A00544F4E453A256400534554414C41524DC8
:103CAA004F4E3A00534554414C41524D4F4E3A25DE
:103CBA0064004A414457414C3A004A414457414CF6
:103CCA003A25643A25642C25643A25642C25643AFD
:103CDA0025642C25643A25642C25643A2564000061
:00000001FF
